{
  "_format": "hh3-artifact-1",
  "contractName": "DonationManager",
  "sourceName": "contracts/DonationManager.sol",
  "abi": [
    {
      "inputs": [],
      "stateMutability": "nonpayable",
      "type": "constructor"
    },
    {
      "anonymous": false,
      "inputs": [
        {
          "indexed": true,
          "internalType": "address",
          "name": "ngo",
          "type": "address"
        },
        {
          "indexed": true,
          "internalType": "address",
          "name": "donor",
          "type": "address"
        },
        {
          "indexed": false,
          "internalType": "uint256",
          "name": "amount",
          "type": "uint256"
        }
      ],
      "name": "Donated",
      "type": "event"
    },
    {
      "anonymous": false,
      "inputs": [
        {
          "indexed": true,
          "internalType": "address",
          "name": "ngo",
          "type": "address"
        }
      ],
      "name": "Frozen",
      "type": "event"
    },
    {
      "anonymous": false,
      "inputs": [
        {
          "indexed": true,
          "internalType": "address",
          "name": "ngo",
          "type": "address"
        }
      ],
      "name": "Unfrozen",
      "type": "event"
    },
    {
      "anonymous": false,
      "inputs": [
        {
          "indexed": true,
          "internalType": "address",
          "name": "ngo",
          "type": "address"
        },
        {
          "indexed": true,
          "internalType": "address",
          "name": "to",
          "type": "address"
        },
        {
          "indexed": false,
          "internalType": "uint256",
          "name": "amount",
          "type": "uint256"
        }
      ],
      "name": "Withdrawn",
      "type": "event"
    },
    {
      "inputs": [
        {
          "internalType": "address",
          "name": "",
          "type": "address"
        }
      ],
      "name": "balances",
      "outputs": [
        {
          "internalType": "uint256",
          "name": "",
          "type": "uint256"
        }
      ],
      "stateMutability": "view",
      "type": "function"
    },
    {
      "inputs": [
        {
          "internalType": "address",
          "name": "ngo",
          "type": "address"
        }
      ],
      "name": "donate",
      "outputs": [],
      "stateMutability": "payable",
      "type": "function"
    },
    {
      "inputs": [
        {
          "internalType": "address",
          "name": "ngo",
          "type": "address"
        }
      ],
      "name": "freezeNgo",
      "outputs": [],
      "stateMutability": "nonpayable",
      "type": "function"
    },
    {
      "inputs": [
        {
          "internalType": "address",
          "name": "",
          "type": "address"
        }
      ],
      "name": "frozen",
      "outputs": [
        {
          "internalType": "bool",
          "name": "",
          "type": "bool"
        }
      ],
      "stateMutability": "view",
      "type": "function"
    },
    {
      "inputs": [],
      "name": "owner",
      "outputs": [
        {
          "internalType": "address",
          "name": "",
          "type": "address"
        }
      ],
      "stateMutability": "view",
      "type": "function"
    },
    {
      "inputs": [
        {
          "internalType": "address",
          "name": "ngo",
          "type": "address"
        }
      ],
      "name": "unfreezeNgo",
      "outputs": [],
      "stateMutability": "nonpayable",
      "type": "function"
    },
    {
      "inputs": [
        {
          "internalType": "address",
          "name": "ngo",
          "type": "address"
        },
        {
          "internalType": "address payable",
          "name": "to",
          "type": "address"
        },
        {
          "internalType": "uint256",
          "name": "amount",
          "type": "uint256"
        }
      ],
      "name": "withdraw",
      "outputs": [],
      "stateMutability": "nonpayable",
      "type": "function"
    }
  ],
  "bytecode": "0x6080604052348015600e575f5ffd5b50335f5f6101000a81548173ffffffffffffffffffffffffffffffffffffffff021916908373ffffffffffffffffffffffffffffffffffffffff160217905550610c278061005b5f395ff3fe60806040526004361061006e575f3560e01c80638da5cb5b1161004d5780638da5cb5b146100f2578063d05166501461011c578063d9caed1214610158578063e43c1c03146101805761006e565b8062362a951461007257806327e235e31461008e5780635019761b146100ca575b5f5ffd5b61008c60048036038101906100879190610842565b6101a8565b005b348015610099575f5ffd5b506100b460048036038101906100af9190610842565b6102a5565b6040516100c19190610885565b60405180910390f35b3480156100d5575f5ffd5b506100f060048036038101906100eb9190610842565b6102ba565b005b3480156100fd575f5ffd5b506101066103e2565b60405161011391906108ad565b60405180910390f35b348015610127575f5ffd5b50610142600480360381019061013d9190610842565b610406565b60405161014f91906108e0565b60405180910390f35b348015610163575f5ffd5b5061017e6004803603810190610179919061095e565b610423565b005b34801561018b575f5ffd5b506101a660048036038101906101a19190610842565b6106bb565b005b5f34116101ea576040517f08c379a00000000000000000000000000000000000000000000000000000000081526004016101e190610a08565b60405180910390fd5b3460015f8373ffffffffffffffffffffffffffffffffffffffff1673ffffffffffffffffffffffffffffffffffffffff1681526020019081526020015f205f8282546102369190610a53565b925050819055503373ffffffffffffffffffffffffffffffffffffffff168173ffffffffffffffffffffffffffffffffffffffff167f4dfff917e1fbb261a082e98cc7d43029621f6a6eb05ff3fef1510d5f1eb4857c3460405161029a9190610885565b60405180910390a350565b6001602052805f5260405f205f915090505481565b5f5f9054906101000a900473ffffffffffffffffffffffffffffffffffffffff1673ffffffffffffffffffffffffffffffffffffffff163373ffffffffffffffffffffffffffffffffffffffff1614610348576040517f08c379a000000000000000000000000000000000000000000000000000000000815260040161033f90610ad0565b60405180910390fd5b5f60025f8373ffffffffffffffffffffffffffffffffffffffff1673ffffffffffffffffffffffffffffffffffffffff1681526020019081526020015f205f6101000a81548160ff0219169083151502179055508073ffffffffffffffffffffffffffffffffffffffff167f4feb53e305297ab8fb8f3420c95ea04737addc254a7270d8fc4605d2b9c61dba60405160405180910390a250565b5f5f9054906101000a900473ffffffffffffffffffffffffffffffffffffffff1681565b6002602052805f5260405f205f915054906101000a900460ff1681565b5f5f9054906101000a900473ffffffffffffffffffffffffffffffffffffffff1673ffffffffffffffffffffffffffffffffffffffff163373ffffffffffffffffffffffffffffffffffffffff16146104b1576040517f08c379a00000000000000000000000000000000000000000000000000000000081526004016104a890610ad0565b60405180910390fd5b60025f8473ffffffffffffffffffffffffffffffffffffffff1673ffffffffffffffffffffffffffffffffffffffff1681526020019081526020015f205f9054906101000a900460ff161561053b576040517f08c379a000000000000000000000000000000000000000000000000000000000815260040161053290610b38565b60405180910390fd5b5f60015f8573ffffffffffffffffffffffffffffffffffffffff1673ffffffffffffffffffffffffffffffffffffffff1681526020019081526020015f20549050808211156105bf576040517f08c379a00000000000000000000000000000000000000000000000000000000081526004016105b690610ba0565b60405180910390fd5b81816105cb9190610bbe565b60015f8673ffffffffffffffffffffffffffffffffffffffff1673ffffffffffffffffffffffffffffffffffffffff1681526020019081526020015f20819055508273ffffffffffffffffffffffffffffffffffffffff166108fc8390811502906040515f60405180830381858888f1935050505015801561064f573d5f5f3e3d5ffd5b508273ffffffffffffffffffffffffffffffffffffffff168473ffffffffffffffffffffffffffffffffffffffff167fd1c19fbcd4551a5edfb66d43d2e337c04837afda3482b42bdf569a8fccdae5fb846040516106ad9190610885565b60405180910390a350505050565b5f5f9054906101000a900473ffffffffffffffffffffffffffffffffffffffff1673ffffffffffffffffffffffffffffffffffffffff163373ffffffffffffffffffffffffffffffffffffffff1614610749576040517f08c379a000000000000000000000000000000000000000000000000000000000815260040161074090610ad0565b60405180910390fd5b600160025f8373ffffffffffffffffffffffffffffffffffffffff1673ffffffffffffffffffffffffffffffffffffffff1681526020019081526020015f205f6101000a81548160ff0219169083151502179055508073ffffffffffffffffffffffffffffffffffffffff167f8a5c4736a33c7b7f29a2c34ea9ff9608afc5718d56f6fd6dcbd2d3711a1a491360405160405180910390a250565b5f5ffd5b5f73ffffffffffffffffffffffffffffffffffffffff82169050919050565b5f610811826107e8565b9050919050565b61082181610807565b811461082b575f5ffd5b50565b5f8135905061083c81610818565b92915050565b5f60208284031215610857576108566107e4565b5b5f6108648482850161082e565b91505092915050565b5f819050919050565b61087f8161086d565b82525050565b5f6020820190506108985f830184610876565b92915050565b6108a781610807565b82525050565b5f6020820190506108c05f83018461089e565b92915050565b5f8115159050919050565b6108da816108c6565b82525050565b5f6020820190506108f35f8301846108d1565b92915050565b5f610903826107e8565b9050919050565b610913816108f9565b811461091d575f5ffd5b50565b5f8135905061092e8161090a565b92915050565b61093d8161086d565b8114610947575f5ffd5b50565b5f8135905061095881610934565b92915050565b5f5f5f60608486031215610975576109746107e4565b5b5f6109828682870161082e565b935050602061099386828701610920565b92505060406109a48682870161094a565b9150509250925092565b5f82825260208201905092915050565b7f7a65726f2076616c7565000000000000000000000000000000000000000000005f82015250565b5f6109f2600a836109ae565b91506109fd826109be565b602082019050919050565b5f6020820190508181035f830152610a1f816109e6565b9050919050565b7f4e487b71000000000000000000000000000000000000000000000000000000005f52601160045260245ffd5b5f610a5d8261086d565b9150610a688361086d565b9250828201905080821115610a8057610a7f610a26565b5b92915050565b7f6f6e6c79206f776e6572000000000000000000000000000000000000000000005f82015250565b5f610aba600a836109ae565b9150610ac582610a86565b602082019050919050565b5f6020820190508181035f830152610ae781610aae565b9050919050565b7f6e676f2066726f7a656e000000000000000000000000000000000000000000005f82015250565b5f610b22600a836109ae565b9150610b2d82610aee565b602082019050919050565b5f6020820190508181035f830152610b4f81610b16565b9050919050565b7f696e73756666696369656e7400000000000000000000000000000000000000005f82015250565b5f610b8a600c836109ae565b9150610b9582610b56565b602082019050919050565b5f6020820190508181035f830152610bb781610b7e565b9050919050565b5f610bc88261086d565b9150610bd38361086d565b9250828203905081811115610beb57610bea610a26565b5b9291505056fea2646970667358221220c445a3511a24bc4061f2fd5139b30e085dce86750e7dafe8394bd233b7e9139f64736f6c634300081c0033",
  "linkReferences": {},
  "deployedLinkReferences": {},
  "immutableReferences": {},
  "inputSourceName": "project/contracts/DonationManager.sol",
  "buildInfoId": "solc-0_8_28-53c221cb31024b4c1604654c9cd5ee79f002b36e"
}